:020000040000fa
:080000000002040000000000f2
:020000040000fa
:04000800fe030000f3
:020000040000fa
:04000c00fe030000ef
:020000040000fa
:04001000fe030000eb
:020000040000fa
:04001400fe030000e7
:020000040000fa
:04001800fe030000e3
:020000040000fa
:04001c00fe030000df
:020000040000fa
:04002000fe030000db
:020000040000fa
:04002400fe030000d7
:020000040000fa
:04002800fe030000d3
:020000040000fa
:04002c00fe030000cf
:020000040000fa
:04003000fe030000cb
:020000040000fa
:04003400480300007d
:020000040000fa
:04003800fe030000c3
:020000040000fa
:04003c00fe030000bf
:020000040000fa
:04004000fe030000bb
:020000040000fa
:04004400fe030000b7
:020000040000fa
:040048001e03000093
:020000040000fa
:04004c00fe030000af
:020000040000fa
:04005000fe030000ab
:020000040000fa
:04005400ba030000eb
:020000040000fa
:040058009003000011
:020000040000fa
:04005c00fa020000a4
:020000040000fa
:04006000fe0300009b
:020000040000fa
:04006400fe03000097
:020000040000fa
:04006800fe03000093
:020000040000fa
:04006c00fe0300008f
:020000040000fa
:04007000fe0300008b
:020000040000fa
:04007400fe03000087
:020000040000fa
:04007800fe03000083
:020000040000fa
:04007c00fe0300007f
:020000040000fa
:04008000fe0300007b
:020000040000fa
:04008400fe03000077
:020000040000fa
:04008800fe03000073
:020000040000fa
:04008c00fe0300006f
:020000040000fa
:04009000fe0300006b
:020000040000fa
:0400940066030000ff
:020000040000fa
:04009800fe03000063
:020000040000fa
:04009c00fe0300005f
:020000040000fa
:0400a000fe0300005b
:020000040000fa
:0400a400fe03000057
:020000040000fa
:0400a800fe03000053
:020000040000fa
:0400ac00fe0300004f
:020000040000fa
:0400b000fe0300004b
:020000040000fa
:0400b400fe03000047
:020000040000fa
:0400b800fe03000043
:020000040000fa
:0400bc00fe0300003f
:020000040000fa
:0400c000fe0300003b
:020000040000fa
:0400c400fe03000037
:020000040000fa
:0400c800fe03000033
:020000040000fa
:0400cc00fe0300002f
:020000040000fa
:0400d000fe0300002b
:020000040000fa
:0400d400fe03000027
:020000040000fa
:0400d800fe03000023
:020000040000fa
:0400dc00fe0300001f
:020000040000fa
:0400e000fe0300001b
:020000040000fa
:0400e400fe03000017
:020000040000fa
:0400e800fe03000013
:020000040000fa
:0400ec00fe0300000f
:020000040000fa
:0400f000fe0300000b
:020000040000fa
:0400f400fe03000007
:020000040000fa
:0400f800fe03000003
:020000040000fa
:0400fc00fe030000ff
:020000040000fa
:04010000fe030000fa
:020000040000fa
:04010400fe030000f6
:020000040000fa
:04010800fe030000f2
:020000040000fa
:04010c00fe030000ee
:020000040000fa
:04011000fe030000ea
:020000040000fa
:04011400fe030000e6
:020000040000fa
:04011800fe030000e2
:020000040000fa
:04011c00fe030000de
:020000040000fa
:04012000fe030000da
:020000040000fa
:04012400fe030000d6
:020000040000fa
:04012800fe030000d2
:020000040000fa
:04012c00fe030000ce
:020000040000fa
:04013000fe030000ca
:020000040000fa
:04013400fe030000c6
:020000040000fa
:04013800fe030000c2
:020000040000fa
:04013c00fe030000be
:020000040000fa
:04014000fe030000ba
:020000040000fa
:04014400fe030000b6
:020000040000fa
:04014800fe030000b2
:020000040000fa
:04014c00fe030000ae
:020000040000fa
:04015000fe030000aa
:020000040000fa
:04015400fe030000a6
:020000040000fa
:04015800fe030000a2
:020000040000fa
:04015c00fe0300009e
:020000040000fa
:04016000fe0300009a
:020000040000fa
:04016400fe03000096
:020000040000fa
:04016800fe03000092
:020000040000fa
:04016c00fe0300008e
:020000040000fa
:04017000fe0300008a
:020000040000fa
:04017400fe03000086
:020000040000fa
:04017800fe03000082
:020000040000fa
:04017c00fe0300007e
:020000040000fa
:04018000fe0300007a
:020000040000fa
:04018400fe03000076
:020000040000fa
:04018800fe03000072
:020000040000fa
:04018c00fe0300006e
:020000040000fa
:04019000fe0300006a
:020000040000fa
:04019400fe03000066
:020000040000fa
:04019800fe03000062
:020000040000fa
:04019c00fe0300005e
:020000040000fa
:0401a000fe0300005a
:020000040000fa
:0401a400fe03000056
:020000040000fa
:0401a800fe03000052
:020000040000fa
:0401ac00fe0300004e
:020000040000fa
:0401b000fe0300004a
:020000040000fa
:0401b400fe03000046
:020000040000fa
:0401b800fe03000042
:020000040000fa
:0401bc00fe0300003e
:020000040000fa
:0401c000fe0300003a
:020000040000fa
:0401c400fe03000036
:020000040000fa
:0401c800fe03000032
:020000040000fa
:0401cc00fe0300002e
:020000040000fa
:0401d000fe0300002a
:020000040000fa
:0401d400fe03000026
:020000040000fa
:0401d800fe03000022
:020000040000fa
:0401dc00fe0300001e
:020000040000fa
:0401e000fe0300001a
:020000040000fa
:0401e400fe03000016
:020000040000fa
:0401e800fe03000012
:020000040000fa
:0401ec00fe0300000e
:020000040000fa
:0401f000fe0300000a
:020000040000fa
:0401f400fe03000006
:020000040000fa
:0401f800fe03000002
:020000040000fa
:0401fc00fe030000fe
:020000040000fa
:04020000fe030000f9
:020000040000fa
:04020400fe030000f5
:020000040000fa
:04020800fe030000f1
:020000040000fa
:04020c00fe030000ed
:020000040000fa
:04021000fe030000e9
:020000040000fa
:04021400fe030000e5
:020000040000fa
:04021800fe030000e1
:020000040000fa
:04021c00fe030000dd
:020000040000fa
:04022000fe030000d9
:020000040000fa
:04022400fe030000d5
:020000040000fa
:04022800fe030000d1
:020000040000fa
:04022c00fe030000cd
:020000040000fa
:04023000fe030000c9
:020000040000fa
:04023400fe030000c5
:020000040000fa
:04023800fe030000c1
:020000040000fa
:04023c00fe030000bd
:020000040000fa
:04024000fe030000b9
:020000040000fa
:04024400fe030000b5
:020000040000fa
:04024800fe030000b1
:020000040000fa
:04024c00fe030000ad
:020000040000fa
:04025000fe030000a9
:020000040000fa
:04025400fe030000a5
:020000040000fa
:04025800fe030000a1
:020000040000fa
:04025c00fe0300009d
:020000040000fa
:04026000fe03000099
:020000040000fa
:04026400fe03000095
:020000040000fa
:04026800fe03000091
:020000040000fa
:04026c00fe0300008d
:020000040000fa
:04027000fe03000089
:020000040000fa
:04027400fe03000085
:020000040000fa
:04027800fe03000081
:020000040000fa
:04027c00fe0300007d
:020000040000fa
:04028000fe03000079
:020000040000fa
:100400000f1d21000eff2c000e01880000000000cf
:10041000000020000000e000020032000001200087
:100420002002880014000700f60007000000e0002a
:1004300003003a0060632100010020000200370041
:100440000000200001002000810f70000100320038
:100450000f000700000020000000e0000200320052
:100460000000020000000000bc16020000000000b6
:100470000040da000000fe00200020000000e00044
:1004800002003200100020009001880000000600e9
:10049000a1028800800478000000eb001f003700f4
:1004a000e284440054a0b4009905ba00e2844400f8
:1004b00054a0b4009906ba00e284440054a0b400e9
:1004c0000006eb00476fde00fd07b200ae018800ba
:1004d000636ce10003003a000ad801000000eb0061
:1004e0000e003700606ce10008003a00004deb00a0
:1004f0000a05e800020039003420ec000af0a000f0
:100500008b05e900f9ff3e00040037006168e10057
:10051000010032000086eb000b00070019c7ba008b
:100520000e04e0001905ba0003003a000a00e000da
:10053000dbff3a0000000600fe07b200ae028800b2
:100540008a047800f5ff37000cd0a300e20f4d00bd
:100550001c00390089027800354dba000a05e80010
:10056000020039003420ec000af0a0008b05e900fd
:100570000f003200254dba000a05e80002003900dc
:100580003420ec000af0a0008b05e90008003200de
:100590000c00e0000600320015cdba000a05e800a4
:1005a000020039003420ec000af0a0008b05e900bd
:1005b0008984e80054a0b4000b00e000e2ff3a0098
:1005c000000006009902ba00055d78008b05e9007d
:1005d000f7ff3200c82ade00055d78008b05e900d0
:1005e000f3ff32000c00e000f1ff320019ddba0029
:1005f000eeff3700801f78000000fa0001a8a90074
:1006000000188000308e880010188000408e88000e
:1006100020188000508e880040188000608e88006e
:1006200030188000708e880010c0b3001bf0b70037
:100630000080fa004f00780000400600809fbe0056
:100640000000fa000108a90021718000004020008c
:100650000080600000f0a7000000ea000000e90050
:100660004f00de00004078000080fb006100600069
:100670004a00dd002171800001a0a100010070008e
:10068000207188000080fa004f00be000040060084
:100690003600f800809fbe00829fbe00849fbe008f
:1006a000869fbe000000fa000068a900f30807005a
:1006b0000080fa004f03be004f02be004f01be0093
:1006c0004f00be003600f900004006003600f8007a
:1006d000809fbe00829fbe00849fbe00869fbe009a
:1006e0000000fa000368a90090808000a1808000cb
:1006f00061004000e080480090808800a180880070
:10070000c30107000080fa004f03be004f02be0085
:100710004f01be004f00be003600f9000040060049
:100720003600f800809fbe00829fbe00849fbe00fe
:10073000869fbe000000fa000188a9005180800059
:1007400040808000808f5000020032007408070053
:10075000010037000c70ef000080fa004f03be006c
:100760004f02be004f01be004f00be003600f90030
:10077000004006003600f800809fbe00829fbe0049
:10078000849fbe00869fbe000000fa000168a90099
:1007900010118000640060000000e00001003200e1
:1007a0002242a90010118000620060000000e000f9
:1007b000060032002222a900050037003011800017
:1007c00000407800bd08070001003700000000006d
:1007d00010118000610060000000e000f7ff3a00a7
:1007e0000080fa004f03be004f02be004f01be0062
:1007f0004f00be003600f900004006000040da005d
:100800000000fe000000050003f0a200889fbe006b
:100810008a9fbe008c1f7800160107001d0133005f
:100820006450e1004f0032006420e10052003200c9
:1008300003826c0007003b000905d0000306d000ce
:10084000820f54000c065d000200390002003200e5
:1008500089017800030678008582550004003d0078
:100860000003fd008103fd008502ea008b85420044
:10087000840f720002003b0060001000e08018004e
:100880006011b8000005eb007a28e1000a00390089
:1008900006007800c75ddd00f707b20087807500ad
:1008a0002d003700828171000a0178006105600027
:1008b0008180d1000080d3008502e900f9ff3b0070
:1008c000060440008784480002003b0060041400d6
:1008d000e0841c000988a300070032008a817100af
:1008e00082817100610164008904d1000884d30011
:1008f0008b05e800170037000978a30013003a00c1
:100900000b00e000130034008b05e90008044400ec
:1009100089844c000a4474000978a3000d003a0051
:100920000b00e000070034008b05e90008044400d8
:1009300089844c0001003a000b0020000978a300d4
:10094000f7ff32000001eb000200370082817100e6
:100950000a0178008c0007000cf0a70001f0a0004d
:10096000d50037006420e10002003a00838f6c005c
:10097000d50033000801be000200be00ce003700e3
:10098000889fbe008a9fbe008c1f7800b9000700b8
:10099000c000330003866c006450e1002e0032007a
:1009a0006420e100330032006150e1002f0032008a
:1009b0006120e1003100320085855500eb07b00071
:1009c0000900200008042000050037000804440046
:1009d00089844c000a0031000603430087834b00e2
:1009e0000001530081815b00f8ff33000203be0069
:1009f0000800a0000804440089844c00f6ff390078
:100a0000c639dd00830173000100320013002000ad
:100a10008904d1000884d3000998a300050032009e
:100a20000800a7000300a0008904d1000884d300b7
:100a30008b05e8008904d1000884d3000001eb0095
:100a40000281d2005000070001f0a1000cf0a700c5
:100a500001f0a000980037006420e1009a00320005
:100a60000801be000200be00f7ff37006120e10070
:100a7000950032006000b800f3ff3700000020004e
:100a800001f82700f0ff370014002000c5003700f0
:100a9000f4ff2f00c30037000001be006000070014
:100aa0000470a70003f0a1006509b1001600320030
:100ab0000d0035006828e10006003500f0ff2f002a
:100ac000f1ff27000300e00013003b0001002800b5
:100ad0000000050000004000818048008502e90018
:100ae000fcff3a0008003700f88f420002003c008b
:100af0008000eb00000005008100d1000080d300e1
:100b00008502e800fcff3a000300e00002003b0021
:100b100060001000e0801800000006000001be0028
:100b20003f0007000470a70003f0a10003f8a30032
:100b300013003a006509b1001000320009003500c9
:100b40006928e100020035000100280000000500ce
:100b500000004000818048008502e900fcff3a0067
:100b600000000600f88f4200050035008100d1002a
:100b70000080d3008502e800fcff3a000000060078
:100b80008000eb000000050081002000618055001e
:100b90000b003d000b00200061fe2f000100e10072
:100ba0001d00340082817100610164008904d1005c
:100bb0000884d3000000e800faff3a00710020002a
:100bc0006100640003007000020060000900320050
:100bd00061044400e0844c000988a500050032004f
:100be0008b05e8006808e10002003a008904d100a2
:100bf0000884d300f20f20000258e10005003d00f8
:100c0000c75ddd00f907b200898075000800780033
:100c1000000006000bf827008b007800000005009c
:100c2000c70ade00f107b200f50fb200080032007b
:100c3000e1cf4200020032000170a0002400050054
:100c4000810f700001003200040805004400050017
:100c5000810f700002003a00140005008502e900cf
:100c60000000400081c04800fcff3b000170a00074
:100c7000240005000004be00e9ff07000003be00d9
:100c80000405be000200be00e5ff0700844f7500aa
:100c9000000006000200be006450e10005003600be
:100ca0006420e100020036000968a30001003a0058
:100cb0000800be000160a0004f0678004f05be008e
:100cc0004f04be0000000600f0ff2f00f1ff2700d8
:100cd000f9ff3700889fbe008a9fbe008c1f7800f6
:100ce000e4ff0700ebff330003866c006450e10073
:100cf000240032006420e100270032006150e1004e
:100d0000220032006120e100210032008b85420088
:100d1000eb07b1000134b800003ab8000804420003
:100d200089844a00013ab8000030b8008880400049
:100d300009014a000400330000004000818048009f
:100d4000020149008b05e900c909dd00830170003b
:100d50000100320013002000c814de004814dd003a
:100d60004709de001200b200c808de0008847000e7
:100d700085ff070001f0a1000cf0a70001f0a00022
:100d8000cdff37006120e100cfff32000801be0037
:100d90000200be00f7ff37006150e100fcff3a009f
:100da000c9ff3700889fbe008a9fbe00841f78005d
:100db000b0ff07004f00780011003300f0ff2f0054
:100dc000838f6c0006003b00040565000a00a70045
:100dd0000800370009f0a6001000200008003700c6
:100de000820f5400838f5c00030039001000200044
:100df00001003e000000200009f0a7000000ea000a
:100e00004f05be004f04be000000e00000000600d9
:020000040000fa
:100e10000000fa00e0192100104078000080fb007b
:100e2000cf80de000201200003002000820f50006e
:100e3000838f5800b7003e00000601001000370005
:100e40001d003700270037004000370045003700fd
:100e5000500037005500370060003700650037004c
:100e6000700037007500370080003700a900370098
:100e70009000370083003700940037009f00370050
:100e80000041eb006000b8004005070012c0b3004d
:100e90006000b8003d050700401c210010407800ac
:100ea000e34f50009f003a00e019210011c0b30049
:100eb00001487800ac00370092808000a380800059
:100ec000007d200001002000800f5100818f59001b
:100ed00096003600e019210021c0b30001487800d7
:100ee000a1003700f019210010407800e14f5000b8
:100ef00003003a0000002000011f24000200370018
:100f000000002000011f2c000041eb001f0507001e
:100f1000f019210010407800e14f500003003a0022
:100f200000002000011f2400020037000000200004
:100f3000011f2c0012c0b30014050700e0192100a6
:100f400031c0b3000148780087003700401c210001
:100f500010407800e34f500076003a00850007000b
:100f6000810037000041eb0000002000c125240073
:100f70000605070012c0b30000002000011f240076
:100f800002050700e019210051c0b30001487800b4
:100f900075003700401c210010407800e34f5000de
:100fa00066003a00730007006f0037000041eb0055
:100fb00000002000011f2400f404070012c0b30049
:100fc00000002000c1252400f0040700e0192100e2
:100fd00071c0b3000148780063003700401c210055
:100fe00010407800e34f500056003a0061000700bf
:100ff0005d0037000041eb0000002000811c240050
:10100000e204070012c0b30000002000811c2c0085
:10101000de040700e019210091c0b3000148780008
:1010200051003700401c210010407800e34f500071
:1010300046003a004f0007004b0037000041eb002c
:1010400000002000811c2c00d004070012c0b30057
:1010500000002000811c2400cc040700e0192100be
:10106000b1c0b300014878003f003700401c2100a8
:1010700010407800e34f500036003a003d00070072
:10108000390037000041eb00000020000117240068
:10109000be04070012c0b3000000200001172400a6
:1010a000ba040700e0192100d1c0b300014878005c
:1010b0002d003700401c210010407800e34f500005
:1010c00026003a002b000700270037000041eb0004
:1010d0000000200081242400ac04070012c0b300eb
:1010e0000000200081242400a8040700e01921004a
:1010f00001c1b300014878001b003700401c2100eb
:1011000010407800e34f500016003a001900070025
:1011100015003700e01921008040eb0001487800fd
:1011200011003700000000000f0037000000000031
:101130000d003700000000000b0037000000000029
:101140000900370000000000070037000000000021
:101150000500370000000000030037000000000019
:101160000100370000000000e70307000080fa00dc
:10117000000006000200fa00881f78000040eb0023
:10118000004f7800c08d8000d18d800018c0b30062
:1011900002002000032224003bfe07000000e000c4
:1011a000010035000044eb000804e00016003a009e
:1011b000808d8000918d800018c0b3000200200057
:1011c0000322240030fe07000000e000010035008b
:1011d0000044eb000804e0000b003a00008e8000a1
:1011e000118e800018c0b30002002000031a2400f2
:1011f00025fe07000000e000010035000044eb0080
:101200000804e0000200320030c0b300004f780054
:10121000c08d8000d18d800018c0b3000200200076
:10122000031a240018fe07000000e000010035004a
:101230000044eb000804e0000300320040c0b300ab
:10124000004f78005b003700808d8000918d80001a
:1012500018c0b30002002000031724000afe070094
:101260000000e000010035000044eb000804e0004d
:101270000300320020c0b300004f78004d0037005b
:10128000008e8000118e800018c0b3000200200084
:1012900003172400fcfd07000000e00001003500fa
:1012a0000044eb000804e0000300320010c0b3006b
:1012b000004f78003f003700a08d8000b18d800086
:1012c00018c0b30002002000831c2400eefd0700bc
:1012d0000000e000010035000044eb000804e000dd
:1012e0000300320020c0b300004f78003100370007
:1012f000e08d8000f18d800018c0b3000200200056
:10130000831c2400e0fd07000000e0000100350020
:101310000044eb000804e0000300320010c0b300fa
:10132000004f780023003700c08d8000d18d8000f1
:1013300018c0b3000200200003222400d4fd0700df
:101340000000e00001003c000044eb000804e00065
:1013500018003200808d8000918d800018c0b3008d
:101360000200200003222400c9fd07000000e00065
:1013700001003c000044eb000804e0000d003200d6
:10138000008e8000118e800018c0b3000200200083
:1013900003222400befd07000000e00001003c0025
:1013a0000044eb000804e000020032000040eb00c3
:1013b000004f78001e4078000004e00003003a006f
:1013c00020c0b3001cf0b700270037001e40780093
:1013d000e24f500003003a0040c0b3001cf0b700d9
:1013e000210037001e407800e14f500003003a0012
:1013f00060c0b3001cf0b7001b0037001e4078002f
:10140000e34f500003003a00c0c0b3001cf0b70027
:10141000150037001e407800e44f500012003a00db
:10142000848d8000958d8000008e8000118e80005c
:1014300018c0b3000001be000400be0092fd07000a
:101440000000e000010035000044eb000804e0006b
:101450000300320080c0b3001cf0b7000200370068
:10146000a0c0b3001cf0b7001cd0bf008080fb0000
:10147000e0192100104078000080fb000000e90026
:10148000808f500004003200c1012100914078009b
:10149000e0192100014878004f0478000080fa002c
:1014a000000006000200fa00004f78009e4078001d
:1014b000401c21000148780064cea9002073800000
:1014c0004600de00614060000080fb0061006000bb
:1014d0004700dd00217380000170a1000100700051
:1014e00020738800207380004700de0061406000a8
:1014f0000080fb00610060004a00dd002171800077
:1015000001a0a10001007000207188000041eb00e3
:101510006000b8009d03070012c0b3006000b8006f
:101520009a030700f8020700e01921008040eb0051
:10153000014878001e4078000004e00002003a00f4
:101540001230ef001430ef000080fa0000000600b7
:101550000400fa00881f7800008fbe0018c0b30096
:101560006011b8001e0078009e00900048fd070042
:101570000000e00001003d000044eb000804e00032
:10158000030032001e0078009e0090000300370028
:101590001e0078009e00900001f0a2004f04780029
:1015a0000080fa00000006000800fa00881f78009a
:1015b000008fbe00220798003307980018c0b300c0
:1015c0002e019000be0190001e0078009e00900049
:1015d0002ffd07000000e00001003c000044eb008c
:1015e0000804e000030032001e0078009e00900016
:1015f000020037002e009000be0090004f047800db
:101600000080fa00000006000800fa00881f780039
:10161000008fbe00220798003307980018c0b3005f
:101620002e019000be0190001e0078009e009000e8
:1016300015fd07000000e000010035000044eb004c
:101640000804e000030032001e0078009e009000b5
:10165000020037002e009000be0090004f0478007a
:101660000080fa00000006000c00fa00881f7800d5
:10167000008fbe00220798003307980044079800a7
:101680005507980018c0b3004e019000de0190008d
:101690001e0078009e009000fdfc07000000e000a6
:1016a00001003c000044eb000804e00004003200ac
:1016b0004e019000de019000028fbe000e00370048
:1016c00018c0b3002e019000be0190001e007800eb
:1016d0009e009000ecfc07000000e00001003500d7
:1016e0000044eb000804e000030032002e019000eb
:1016f000be019000028fbe001e0078009e00900088
:101700004f0478000080fa00000006000400fa0090
:10171000008fbe00b2fd2000930424001e0078005c
:101720009e00900096fc0700020020004333240036
:1017300068fd07000080fa00000006000400fa00bf
:10174000008fbe00b2fd2000930424001e0078002c
:101750009e0090005ffd070002002000433324003c
:1017600087fc07000080fa00000006000000fa0075
:10177000881f7800808d8000918d800018c0b30094
:1017800002002000031f2400bffc07000000e0004f
:10179000010035000044eb000804e0002c003a0092
:1017a000a08d8000b18d800018c0b3000200200021
:1017b000031f2400b4fc07000000e0000100350016
:1017c0000044eb000804e00021003a00c08d8000d6
:1017d000d18d800018c0b30002002000031f240038
:1017e000a9fc07000000e000010035000044eb0008
:1017f0000804e00016003a00e08d8000f18d8000c2
:1018000018c0b30002002000031f24009efc070044
:101810000000e000010035000044eb000804e00097
:101820000b003a00008e8000118e800018c0b300bb
:1018300002002000031f240093fc07000000e000ca
:10184000010035000044eb000804e0008100320094
:10185000254ea800808d8000918d800018c0b300b7
:1018600002002000031a240087fc07000000e000ab
:10187000010035000044eb000804e0002c003a00b1
:10188000a08d8000b18d800018c0b3000200200040
:10189000031a24007cfc07000000e0000100350072
:1018a0000044eb000804e00021003a00c08d8000f5
:1018b000d18d800018c0b30002002000031a24005c
:1018c00071fc07000000e000010035000044eb005f
:1018d0000804e00016003a00e08d8000f18d8000e1
:1018e00018c0b30002002000031a240066fc0700a1
:1018f0000000e000010035000044eb000804e000b7
:101900000b003a00008e8000118e800018c0b300da
:1019100002002000031a24005bfc07000000e00026
:10192000010035000044eb000804e0003d003200f7
:1019300064eea800808d8000918d800018c0b300f7
:1019400002002000031224004ffc07000000e0000a
:10195000010035000044eb000804e0002c003a00d0
:10196000a08d8000b18d800018c0b300020020005f
:101970000312240044fc07000000e00001003500d1
:101980000044eb000804e00021003a00c08d800014
:10199000d18d800018c0b300020020000312240083
:1019a00039fc07000000e000010035000044eb00b6
:1019b0000804e00016003a00e08d8000f18d800000
:1019c00018c0b30002002000031224002efc070000
:1019d0000000e000010035000044eb000804e000d6
:1019e0000b003a00008e8000118e800018c0b300fa
:1019f000020020000312240023fc07000000e00086
:101a0000010035000044eb000804e0000200320051
:101a100064cea8000100370064cea90000000000d9
:101a20002100370064eea900207380004700de002b
:101a3000614060000080fb00610060004600dd0046
:101a4000217380000160a1000100700020738800f4
:101a50001500370064cea900207380004600de0028
:101a6000614060000080fb00610060004700dd0015
:101a7000217380000170a1000100700020738800b4
:101a8000207380004700de00614060000080fb00a2
:101a9000610060004a00dd002171800001a0a1000a
:101aa00001007000207188004f0478000080fa0067
:101ab000000006000a00fa0020079800310798008d
:101ac000420798000000eb00000f7800e0cfb30061
:101ad000204798002e00900000407800ae40900013
:101ae00000c06800204798003e0090000040780049
:101af000ae40900000c06800204798000000eb0056
:101b0000000f7800080037001e007800ce0090001b
:101b10000080400010407800ae40900000c0680097
:101b2000204798001e0fe8009e0078003e009000bd
:101b3000808f5000f4ff39002e4090000080fa00a2
:101b4000000006000e00fa00889fbe0040079800c3
:101b500051079800620798000f0478000f00780082
:101b6000800478000000eb00000f78000000eb001c
:101b7000100798005e00900066004000800078002a
:101b80008100e900210798000000e8000000e8005b
:101b90000000d100800040000f00780081874700de
:101ba0000000e8000000d10000004000300798006d
:101bb0003e0090001e004000e1cfb30001487800d5
:101bc0001e0fe8004e0090004800de0080407800c4
:101bd0003e0090001e004000014878001e0fe80003
:101be0004e009000804078003e0090001e004000b3
:101bf000014878001e0fe8005e0090004800de00fb
:101c0000804078003e0090001e00400001487800af
:101c10001e0fe8005e009000804078003e009000bb
:101c20001e004000014878001e0fe8000000eb0095
:101c3000100798000b0037001e009000ee00900087
:101c400000804000904078003e0090001e00400060
:101c5000014878001e0fe8001e0090000000e80018
:101c6000100798009e0090005e009000808f50004a
:101c7000f1ff39006e019000de0090004e009000f0
:101c80008cff0700be0090009e80400080487800d6
:101c90001e0fe8003e0090009e007800e60207005c
:101ca00089077800880778004f04be000080fa009a
:101cb000000006000200fa00004f7800008080005b
:101cc000e30f500025003200e30f500005003e00f6
:101cd000e10f500010003200e10f500018003e00ec
:101ce00007003700e50f500033003200e50f5000c9
:101cf00024003900e60f50003e0032004c0037004f
:101d00001e407800e24f40004c003a0010002000d6
:101d1000008088004c0037009e80fb00108080000f
:101d20000080400010808800108080004800dd00a6
:101d300010808800200020000080880042003700ca
:101d40009e80fb0010808000008040001080880092
:101d500030002000008088003b0037009e80fb00a0
:101d6000208080000080400020808800208080004b
:101d70004800dd00208088004000200000808800ae
:101d8000310037009e80fb002080800000804000f2
:101d900020808800208080000000e00003003a00de
:101da00060002000008088002700370050002000dd
:101db000008088002400370006d0bf008080fb0030
:101dc000e2112100810041009e4878000040e800b7
:101dd00006f0b70006d0bf008080fb0020808000a6
:101de000808f500017003a006000200000808800bb
:101df000150037002180800010808000e211210052
:101e00002cff07009e4f500004003a002180800004
:101e100010808000e21121000d0007000230ef0069
:101e20000430ef000670ef000030ef0006003700ce
:101e30000030ef0000000000030037000000000049
:101e400001003700000000000080fa0000000600da
:101e50000600fa00000f780011079800220798008a
:101e60001e00780001022000810f500004003200a3
:101e700001052000810f50002f0032003a0037008a
:101e80002e009000104078000080fb00e20f500010
:101e900010003200e30f50001a003200e10f500032
:101ea00030003a002e0090000000e800104078005a
:101eb000614060000080fb00610060004700dd00c1
:101ec000217380000170a100010070002073880060
:101ed000180037002e0090000000e8001040780045
:101ee000614060000080fb00610060004a00dd008e
:101ef0002171800001a0a100010070002071880004
:101f00000c0037002e0090000000e8001040780020
:101f1000614060000080fb00610060004600dd0061
:101f2000217380000160a10001007000207388000f
:101f3000000000000c0037002e0090009040780058
:101f4000e0192100014878002e0090000000e80010
:101f500090407800f019210001487800000000004e
:101f600001003700000000000080fa0000000600b9
:101f70000000fa001160800080ff2f0000806000e8
:101f80001060880000fa20002060880023aca800c0
:101f9000238ca80011618000f03f2f0000806000ba
:101fa00000a0a0001061880030002000206188009f
:101fb000c3aca800c38ca80011668000f03f2f00be
:101fc0000080600000a0a0001066880030002000a3
:101fd0002066880001eca8000080fa0000000600de
:101fe0000600fa00881f7800008fbe0022079800c4
:101ff0002e009000e10f50001f003a001e017800f3
:102000009e019000228d8800338d880018c0b30097
:102010006011b8001e0078009e0090009cfa070036
:102020000000e00001003c000044eb000804e00078
:102030000400320023eca80015eea80023cca90070
:102040000300370023cca80015cea80023eca9007c
:10205000208d8000318d80000200200003222400aa
:102060001cfb07003afd0700acfa070000007800ef
:1020700030618800210037002e0090000000e00051
:102080001e003a001e0178009e019000628d8800bb
:10209000738d880018c0b3006011b8001e0078006e
:1020a0009e0090007afa07000000e00001003c006a
:1020b0000044eb000804e00004003200c3cca80098
:1020c00024cea800c3eca90003003700c3eca8008d
:1020d00024eea800c3cca900608d8000718d800023
:1020e0000200200003222400fafa070018fd07006e
:1020f0008afa070000007800306688004f047800f4
:102100000080fa00000006000000fa00889fbe0070
:10211000648d8000758d8000408d8000518d800021
:1021200018c0b3000001be000400be0056fa07004c
:102130000000e000010035000044eb000804e0006e
:102140000d003200488d8000598d8000648d800024
:10215000758d800070808000818080000001be004d
:102160000400be00a9f907000801be0026fd070013
:10217000608d8800718d8800648d8000758d800071
:10218000408d8000518d800018c0b3000001be005a
:102190000400be003efa07000000e00001003c0021
:1021a0000044eb000804e0000d003200488d800080
:1021b000598d8000648d8000758d80007080800056
:1021c000818080000001be000400be008ef907007f
:1021d0000801be00f4fc0700608d8800718d880046
:1021e000608d8000718d800018c0b3006011b80050
:1021f00027fa07000000e00001003c000044eb006b
:102200000804e00004003200c3eca90024cea800ba
:10221000c3cca80003003700c3cca90024eea8005b
:10222000c3eca800608d8000718d8000c8fc0700a1
:102230000200200003222400a6fa070037fa070054
:102240000000780030668800248d8000358d800085
:10225000008d8000118d800018c0b3000001be0009
:102260000400be0008fa07000000e000010035008d
:102270000044eb000804e0000d003200088d8000ef
:10228000198d8000248d8000358d80007080800045
:10229000818080000001be000400be005bf90700e1
:1022a0000801be00d8fc0700208d8800318d880011
:1022b000248d8000358d8000008d8000118d800080
:1022c00018c0b3000001be000400be00f0f9070012
:1022d0000000e00001003c000044eb000804e000c6
:1022e0000d003200088d8000198d8000248d800043
:1022f000358d800070808000818080000001be00ec
:102300000400be0040f907000801be00a6fc07005b
:10231000208d8800318d8800208d8000318d8000d7
:1023200018c0b3006011b800d9f907000000e00040
:1023300001003c000044eb000804e000040032000f
:1023400023cca90015eea80023eca8000300370059
:1023500023eca90015cea80023cca800208d800076
:10236000318d80007afc0700020020000322240047
:1023700058fa0700e9f9070000007800306188008a
:102380004f04be000080fa00000006000600fa00bc
:10239000008fbe00424798004e4090000004e000cd
:1023a00005003a001e0178009e019000428d8800d1
:1023b000538d8800070037004e409000e14f5000d9
:1023c00004003a001e0178009e019000028d8800f2
:1023d000138d88000080fa00000006000000fa005b
:1023e00013e1a90011e1a9001061a8001021a900c2
:1023f00081088000f0fc2f000080600080088800c9
:102400000a21ef000621ef00202620007008880036
:1024100000a02500600888002142800080ff2f0076
:10242000008060000000a000204288000108a90090
:102430002108a80011e1a8000080fa0000000600b1
:102440000000fa0005e1a9000421a9000068a90024
:102450002068a80005e1a80000002000812c2400cd
:10246000020007000080fa00000006000400fa00e5
:10247000881f7800008fbe0021088000f0fc2f002c
:1024800000806000200888001e0178009e019000f6
:102490000068290081c1240039f9070018c0b30081
:1024a00002f02f00f377240079f907000000e00024
:1024b00001003c000044eb000804e000540032003e
:1024c00021088000f0fc2f00008060000040a00088
:1024d000200888001e0178009e01900000682900f5
:1024e00081c1240026f90700020020000310240007
:1024f00023f9070018c0b30002f02f00f37724007f
:1025000063f907000000e00001003c000044eb001c
:102510000804e0003200320021088000f0fc2f00a7
:10252000008060000050a000200888001e01780094
:102530009e0190000068290081c1240010f9070065
:1025400002002000032824000df9070018c0b30082
:1025500002f02f00f37724004df907000000e0009f
:1025600001003c000044eb000804e00010003200d1
:10257000210880000003200001007000200888006e
:102580001e0178009e0190000068290081c124008e
:10259000fbf807000200200003382400f8f80700c9
:1025a0003df907000000780010088800200037007f
:1025b0001e0178009e0190000068290081c124005e
:1025c000eff807000200200003282400ecf80700c1
:1025d00031f9070000007800100888001400370067
:1025e0001e0178009e0190000068290081c124002e
:1025f000e3f807000200200003102400e0f80700c1
:1026000025f907000000780010088800080037004e
:102610001e0178009e0190000068290081c12400fd
:10262000d7f807001cf907000000780010088800a0
:102630004f0478000080fa00000006000000fa0055
:102640001fe1a9001e21a9000368a9002368a800b2
:102650001fe1a80000002000a1472400020007009d
:102660000080fa00000006000400fa00881f7800cd
:10267000008fbe00f1088000f0fc2f000080600099
:10268000f00888001e0178009e0190000068290073
:1026900081c12400baf8070018c0b30002f02f006f
:1026a000f3772400faf807000000e00001003c0086
:1026b0000044eb000804e00054003200f108800000
:1026c000f0fc2f00008060000040a000f0088800af
:1026d0001e0178009e0190000068290081c124003d
:1026e000a7f807000200200003102400a4f8070048
:1026f00018c0b30002f02f00f3772400e4f80700bd
:102700000000e00001003c000044eb000804e00091
:1027100032003200f1088000f0fc2f0000806000e1
:102720000050a000f00888001e0178009e01900073
:102730000068290081c1240091f8070002002000f0
:10274000032824008ef8070018c0b30002f02f0001
:10275000f3772400cef807000000e00001003c0001
:102760000044eb000804e00010003200f108800093
:102770000003200001007000f00888001e017800ae
:102780009e0190000068290081c124007cf80700a8
:10279000020020000338240079f80700bef8070083
:1027a0000000780010088800200037001e01780023
:1027b0009e0190000068290081c1240070f8070084
:1027c00002002000032824006df80700b2f807007b
:1027d0000000780010088800140037001e017800ff
:1027e0009e0190000068290081c1240064f8070060
:1027f000020020000310240061f80700a6f807007b
:102800000000780010088800080037001e017800da
:102810009e0190000068290081c1240058f807003b
:102820009df8070000007800100888004f04780029
:102830000080fa00000006000600fa001007980069
:10284000210798000040eb00004f78003d00070092
:10285000ae009000810f5000110034000040eb00ea
:10286000004f7800060037001e80fb009e0090009d
:1028700000804000104078000b0007001e4fe80069
:102880009e80fb002e009000808f5000f6ff3500e8
:102890003c0007000004e00001003a0020000700af
:1028a0000080fa00000006000200fa00004f7800e5
:1028b00040808000e1012100808040009e48780037
:1028c0000000e8004080880041808000000820006f
:1028d000808f500001003a000830ef000080fa00bd
:1028e000000006000200fa0050808000e101210093
:1028f00080804000114f78000000e8005080880080
:102900005180800000082000808f500001003a00b4
:102910000a30ef001e4078000080fa000000060038
:102920000200fa0010c0b3000cf0b700edff070082
:10293000004f78001e80fb00201188000080fa0004
:10294000000006000000fa004180800050808000f6
:10295000808f50000500340051808000408080004e
:10296000008050000008b000040037004180800063
:1029700050808000008050000008b0000080fa0005
:10298000000006000000fa000cd0bf000080fa0032
:10299000000006000000fa0021e3a9002143a8007e
:1029a00001198000f0cf2f0000806000001988001e
:1029b0002043a90001198000000e200001007000d2
:1029c0000019880011198000f0ff210000806000cc
:1029d000101988002343a80011198000f0cf2f00a0
:1029e00000806000101988001119800030f82f0055
:1029f000008060000040a000101988002203a90098
:102a00002223a90025e3a900f0c0b30024e3b70006
:102a100021198000f00f2e008080600000f020005f
:102a200001007000201988003303a9001e2ea800a1
:102a30002e0ea8002f6ea8006f2ea8004feea80043
:102a40003063a80030c3a8003163a8002e03a8009b
:102a500031e3a8004119800000fc2f0000806000d5
:102a60004019880028e3a90001a8a90021a8a8000e
:102a700021e3a8000080fa00000006000000fa0030
:102a80002023a8000080fa00000006000000fa00e1
:102a9000601c21000080fa00000006000000fa001f
:102aa0001bd0bf000080fa00000006000000fa0002
:102ab0001b70ef000080fa00000006000200fa0020
:102ac000004f78000f0007000000e0000b0034000a
:102ad000b0808000e1092100808040009e4878009d
:102ae0000000e800b0808800b1808000000820006d
:102af000808f500001003a001630ef000080fa008d
:102b0000000006000000fa00b1808000c080800054
:102b1000808f500005003400c1808000b0808000ac
:102b2000008050000008b00004003700b180800031
:102b3000c0808000008050000008b0000080fa00d3
:102b4000000006000200fa00c0808000e1092100b8
:102b500080804000114f78000000e800c0808800ad
:102b6000c180800000082000808f500001003a00e2
:102b70001830ef001e4078000080fa0000000600c8
:102b80000000fa00b1808000c0808000808f50007b
:102b90000200320010c0b300010037000040eb001b
:102ba0000080fa00000006000000fa00d5ff0700d0
:102bb00001082000008050000080fa00000006009c
:102bc0000000fa00f0032000303a8800213a80002b
:102bd000f0f32f0000806000203a8800213a800046
:102be00000fe2f00008060000000a000203a880056
:102bf0001200200080072000a1092000337420006b
:102c0000804978008149780082497800103a800034
:102c1000000178000200a00060042000710520007f
:102c20002374200080497800814978008249780027
:102c300000000000113a8000000027008080600042
:102c400000002100808f5000faff3a0000000000d1
:102c5000113a800000022000008060000000e000c7
:0c2c6000fbff32000080fa0000000600bc
:020000040000fa
:102c6c000e10000004000000820000000000a00014
:102c7c0040000000c61100000a00000080000000a7
:102c8c001a10000002000000800000009e110000dd
:102c9c00280000008000000012100000040000005a
:102cac00800000001c1000000200000080000000ea
:102cbc001e100000800000008000000008100000c2
:102ccc0006000000800000009e1000008000000044
:102cdc0080000000161000000400000080000000be
:102cec001e11000080000000800000000010000099
:0c2cfc0008000000800000000000000044
:020000040000fa
:102d08000000fa000e2eef001e2eef002e2eef0010
:102d18003e2eef004e2eef005e2eef006e2eef00df
:102d2800214ea90060cea90060eea90011cea9002d
:102d380011eea90020cea90020eea900002ea800bf
:102d48002136800000f82f00008060008001b30069
:102d5800203688001134800000fc2f0000806000bd
:102d68000000a000103488000080fa00000006006f
:102d78000400fa0090ff0700e1ff070095fd070037
:102d8800adfd07002bfe070077fc0700fffe0700dc
:102d98001100070010c0b3002047980020c0b300fe
:102da800bef90700f019210021c0b30001487800de
:102db8000000eb00000f7800030037005fff0700fa
:102dc800bafb07001e0fe80075ff07009e0f5000b2
:102dd800faff3c00f6ff37000000fa002002a900c5
:102de8000111800090ff2f00008060000011880012
:102df80020a2a9002062a8005005200040118800e8
:102e080023a2a90023e2a9000188a9002188a8001b
:102e180011118000f0f32f0000806000101188006d
:102e28000168a9002168a80021e2a8002342a8009f
:082e38000080fa000000060012
:020000040000fa
:02000004000af0
:04afe000cfff00009f
:020000040000fa
:02000004000af0
:04afe400ffff00006b
:020000040000fa
:02000004000af0
:04afe8007fff0000e7
:020000040000fa
:02000004000af0
:04afec005fff000003
:020000040000fa
:02000004000af0
:04aff00038ff000026
:020000040000fa
:02000004000af0
:04aff400ffff00005b
:00000001FF
